:020000040800F2
:1000000000500020452D00086D2800086F280008CA
:1000100071280008732800087528000800000000F7
:100020000000000000000000000000007728000829
:1000300079280008000000007B2800087D280008BF
:100040008D2D00088D2D00088D2D00088D2D0008A8
:100050008D2D00088D2D00088D2D00088D2D000898
:100060008D2D00088D2D00088D2D00088D2D000888
:100070008D2D00088D2D00088D2D00088D2D000878
:100080008D2D00088D2D00088D2D00088D2D000868
:10009000892800088D2D00088D2D00088D2D000861
:1000A0008D2D00088D2D00088D2D00088D2D000848
:1000B0008D2D00088D2D00088D2D00088D2D000838
:1000C0008D2D00088D2D00088D2D00088D2D000828
:1000D0008D2D00088D2D00088D2D00088D2D000818
:1000E0008D2D00088D2D00088D2D000800000000CA
:1000F0000000000000000000000000000000000000
:0C01000000000000000000005FF808F1A3
:10010C0010B5054C237833B9044B13B10448AFF345
:10011C0000800123237010BD60010020000000004E
:10012C00D82D00080C4B43B10C4810B50C49AFF35B
:10013C0000800C48036823B910BD0A48036833B922
:10014C007047094B002BF7D0BDE810401847064B01
:10015C00002BF5D0184700BF00000000D82D000878
:10016C0064010020600100200000000010B504466E
:10017C000E4B18784FF47A73B3FBF0F30C4A1068FB
:10018C00B0FBF3F000F08AF868B90F2C01D901200C
:10019C0010BD002221464FF0FF3000F041F8034B18
:1001AC005C60002010BD012010BD00BF00000020CD
:1001BC001801002008B5074A136843F010031360B8
:1001CC00032000F01BF80020FFF7D0FF02F0F8FA34
:1001DC00002008BD00200240034A1168034B1B7825
:1001EC000B441360704700BFC82A00200000002099
:1001FC00014B1868704700BFC82A0020074AD36813
:10020C0023F4E0631B041B0C000200F4E0601843B1
:10021C0040F0BF6040F40030D060704700ED00E06B
:10022C0030B4164BDB68C3F30223C3F10704042C70
:10023C0028BF04241D1D062D17D9033B012505FAE3
:10024C0004F4013C2140994005FA03F3013B1340AF
:10025C00194300280BDB0901C9B200F1604000F51D
:10026C00614080F8001330BC70470023E6E700F0D3
:10027C000F000901C9B2024B1954F4E700ED00E07C
:10028C0014ED00E0420900F01F00012303FA00F016
:10029C00014B43F82200704700E100E00138B0F157
:1002AC00807F0AD2064B5860F021064A82F8231050
:1002BC000020986007221A6070470120704700BF29
:1002CC0010E000E000ED00E0042805D0054A1368BA
:1002DC0023F0040313607047024A136843F00403CD
:1002EC001360704710E000E0704708B5FFF7FCFFA3
:1002FC0008BD002866D0F0B587B0044690F82934C4
:10030C00C3B1032384F82934206801F00BF8254687
:10031C0055F8107B6E460FCD0FC62B683360231D2E
:10032C000ECB384600F0EEFF0021206801F004F8F7
:10033C00002315E080F8283402F05CFBE1E704EBC5
:10034C004312012182F8291082F82830938600216B
:10035C0082F82B109163D1639A1C5201A150013386
:10036C000E2BECD9002312E004EB4312002182F88F
:10037C00291282F82832938682F82B12C2F838128E
:10038C00C2F83C1203F112025201A15001330E2BA0
:10039C00EAD9254655F8107B6E460FCD0FC62B6853
:1003AC003360231D0ECB384600F0C8FF002584F8BF
:1003BC002450012384F82934206801F0D8FA284607
:1003CC0007B0F0BD0120704790F82834012B01D103
:1003DC000220704710B50446012180F8281402F061
:1003EC0048FC206801F0C1FA206800F092FF002060
:1003FC0084F8280410BD90F82834012B01D1022078
:10040C00704710B50446012380F8283480F8241076
:10041C00006801F0A4FA002084F8280410BD38B557
:10042C004DB2002D12DB01F07F04640104F50A7457
:10043C00044401F07F012170ED0F65702261E370BF
:10044C0090F82834012B07D1022038BD01F07F042D
:10045C00640128340444ECE70546012380F8283471
:10046C002146006800F080FF002085F8280438BD84
:10047C004AB2002A10DB01F07F035B0103F50A731B
:10048C00034401F07F011970D20F5A7090F82824A0
:10049C00012A07D10220704701F07F035B0128334A
:1004AC000344EEE710B50446012280F828241946CF
:1004BC00006801F0F2F8002084F8280410BD70B533
:1004CC0001F07F056C0104F50A7101440444C4F881
:1004DC003C2205F1120252018618835000237360EE
:1004EC0084F8293284F8285225B1006801F05CFAAE
:1004FC00002070BD006801F057FAF9E701F00F0118
:10050C00123100EB41118888704770B501F07F05FE
:10051C006C0104F1280101440444E263AA1C520159
:10052C008618835000237360012384F8293084F8E3
:10053C00285025B1006801F037FA002070BD006822
:10054C0001F032FAF9E770B582B005460023ADF838
:10055C000630ADF8043095E103889BB223F4E143F7
:10056C0023F070039BB203802A68B2F850309BB220
:10057C0095F8281003EBC103023302EB4303D3F8C5
:10058C000034C3F309036B64EA6B1344EB6300217F
:10059C00284602F061FA95F82430002B00F07281A5
:1005AC002B6C002B40F06E812A6895F8243043F0B8
:1005BC008003A2F84C30002385F8243062E1B0F8B7
:1005CC0050309BB295F8282203EBC203063300EBA4
:1005DC004303D3F80034C3F30903C5F84432B5F828
:1005EC002C2205F22C4101F045FB2A68138823F0DC
:1005FC0070031B051B0D1380284602F01BFA41E10A
:10060C00B5F82C22D5F83C1201F034FBD5F8442275
:10061C00D5F83C321344C5F83C3272E1C1F34F02B9
:10062C0011F0010F01D0013292B2920292B2C3F8D2
:10063C00002484E130F824309BB2ADF80430BDF8CE
:10064C00043013F4004F36D1BDF8043013F0800F92
:10065C0000F018812A6832F824309BB223F4E1436D
:10066C0023F070039BB222F8243005EB441393F86B
:10067C003230002B40F0B6802868B0F850309BB276
:10068C0005EB441292F8282003EBC203023300EB73
:10069C004303D3F80034C3F30903A21C05EB421245
:1006AC005360002B00F0CD8005EB44118A8DC96B93
:1006BC0001F065F9C5E030F8243023F070031B0518
:1006CC001B0D20F8243005EB441393F83232DBB9C0
:1006DC002868B0F850309BB205EB441292F82822EF
:1006EC0003EBC203063300EB4303B3F80064C6F319
:1006FC0009068EB305EB44113346B1F82C22D1F820
:10070C003C1201F0B7FA27E0286805EB441393F884
:10071C00282230F8223013F4804F43D0B0F85030F8
:10072C009BB203EBC203023300EB4303B3F8006448
:10073C00C6F3090666BB2A6805EB441393F8281226
:10074C0032F8213023F0F0031B051B0D43F400435A
:10075C0043F0C00322F8213004F112035B01E918C5
:10076C004A6832444A6005EB4411D1F83C223244C9
:10077C00C1F83C22EB581BB1D1F838128E4229D269
:10078C0005EB441393F82812284602F05BF95BE75B
:10079C0005EB44113346B1F82E22D1F83C1201F08E
:1007AC0069FAC8E7B0F850309BB203EBC2030633CA
:1007BC0000EB4303B3F80064C6F30906002EBAD06D
:1007CC0005EB44113346B1F83022D1F83C1201F05C
:1007DC0051FAB0E705EB441191F828122846FFF7BF
:1007EC006EFE31E7286805EB441393F8282030F8A7
:1007FC00223013F0400F00F0B880B0F850309BB2AC
:10080C0003EBC203023300EB4303D3F80034C3F30E
:10081C000903A21C05EB42125360002B40F09E8092
:10082C002A6805EB441393F8281032F8213023F092
:10083C00F0031B051B0D43F4404343F0800322F8E7
:10084C0021302A68B2F850309BB205EB441090F876
:10085C00281003EBC103023302EB4303D3F800244B
:10086C00C2F30902A31C5B01E9184A60C16B0A447C
:10087C00C263EB58002B40F0928090F82810284669
:10088C0002F0EAF82868B0F844309BB2ADF80630B4
:10089C0013F4004F00F08B80BDF8064014F00F04E9
:1008AC007FF4C8AEBDF8063013F0100F3FF454AE11
:1008BC0003889BB2ADF80430BDF8043013F4006F1C
:1008CC007FF47DAEBDF8043013F4004FDAD003880A
:1008DC0023F070031B051B0D03802868B0F8503003
:1008EC009BB295F8282203EBC203063300EB4303BB
:1008FC00D3F80034C3F30903C5F84432002B7FF45A
:10090C007FAE0021284602F09DF82A68B2F85030DC
:10091C009BB2063302EB4303D5F838123E297FF61F
:10092C007DAEC1F34F1211F01F0F01D1013A92B2FB
:10093C006FEAC2626FEA524292B2C3F800242A688C
:10094C0013889BB223F4804323F0700383F4405349
:10095C0043F4004343F08003138093E705EB441109
:10096C00CA8DC96B01F00BF85AE7B0F850309BB246
:10097C0003EBC203063300EB4303D3F80034C3F399
:10098C000903A21C05EB42125360002B3FF448AF45
:10099C0005EB44110A8EC96B00F0F1FF40E705EB43
:1009AC00441494F828102846FFF7AFFD6AE700209E
:1009BC0002B070BD10B50446006800F0DAFF10F408
:1009CC00004F45D1206800F0D4FF10F4806F43D164
:1009DC00206800F0CEFF10F4804F08D02268B2F8E7
:1009EC0044309BB223F480439BB2A2F8443020687D
:1009FC0000F0BFFF10F4005F08D02268B2F844305A
:100A0C009BB223F400539BB2A2F84430206800F050
:100A1C00B0FF10F4805F30D1206800F0AAFF10F412
:100A2C00006F49D1206800F0A4FF10F4007F66D15C
:100A3C00206800F09EFF10F4807F08D02268B2F886
:100A4C0044309BB223F480739BB2A2F8443010BDA7
:100A5C002046FFF778FDB5E72268B2F844309BB228
:100A6C0023F480639BB2A2F84430204602F003F8D2
:100A7C0000212046FFF7BFFCAAE72268B2F84030FD
:100A8C009BB223F004039BB2A2F840302268B2F868
:100A9C0040309BB223F008039BB2A2F840302046B2
:100AAC0002F006F82268B2F844309BB223F480536B
:100ABC009BB2A2F84430AFE72268B2F840309BB248
:100ACC0043F00803A2F840302268B2F844309BB2DD
:100ADC0023F400639BB2A2F844302268B2F8403091
:100AEC009BB243F00403A2F84030206800F041FFB1
:100AFC0010F4805F96D1204601F0CAFF92E722687D
:100B0C00B2F844309BB223F400739BB2A2F8443089
:100B1C00204601F0AAFF8BE738B54AB2002A10DB59
:100B2C004B0103F50A73034401249C7001F07F040C
:100B3C001C70D20F5A7090F82824012A07D1022079
:100B4C0038BD01F07F035B0128330344ECE7054615
:100B5C00012280F828241946006800F080FE1CB1A0
:100B6C00002085F8280438BD05F22C41286800F0D7
:100B7C0004FFF5E710B54AB2002A10DB4B0103F570
:100B8C000A73034400249C7001F07F011970D20F8A
:100B9C005A7090F82824012A07D1022010BD01F0C8
:100BAC007F035B0128330344ECE70446012280F801
:100BBC0028241946006800F089FE002084F82804D7
:100BCC0010BD11F0800F0CD001F07F0149012831CC
:100BDC0001445AB101228A72CB801B0C0B8100207C
:100BEC007047490101F50A710144F2E78A728B8062
:100BFC00F5E7000082B0084B1B68084AA2FB0323F0
:100C0C005B0A00FB03F0019000BF019B5A1E01928E
:100C1C00002BF9D102B0704718010020D34D62109F
:100C2C0070B582B00446036813F0010F3DD0AC4B95
:100C3C005B6803F00C03042B2ED0A94B5B6803F00C
:100C4C000C03082B23D06368B3F5803F51D0002BE5
:100C5C0055D103F1804303F504331A6822F4803232
:100C6C001A601A6822F480221A606368002B60D024
:100C7C00FFF7BEFA05469A4B1B6813F4003F14D1DC
:100C8C00FFF7B6FA401B6428F5D90320AFE1944B6B
:100C9C005B6813F4803FD6D0914B1B6813F4003F74
:100CAC0003D06368002B00F09F81236813F0020FC0
:100CBC0065D08B4B5B6813F00C0F4ED0884B5B6888
:100CCC0003F00C03082B43D02369002B79D00122AD
:100CDC00844B1A60FFF78CFA0546814B1B6813F0A6
:100CEC00020F65D1FFF784FA401B0228F5D90320C7
:100CFC007DE17B4A136843F480331360B5E7B3F5A9
:100D0C00A02F09D0764B1A6822F480321A601A6828
:100D1C0022F480221A60A8E703F18043A3F53C3348
:100D2C001A6842F480221A601A6842F480321A60FF
:100D3C009BE7FFF75DFA0546694B1B6813F4003F10
:100D4C00B3D0FFF755FA401B6428F5D903204EE1C8
:100D5C00634B5B6813F4803FB6D1614B1B6813F097
:100D6C00020F04D02369012B01D001203FE15C4A22
:100D7C00136823F0F803616943EAC1031360236825
:100D8C0013F0080F32D0A369002B6ED00122564B02
:100D9C001A60FFF72DFA0546514B5B6A13F0020FF0
:100DAC0021D1FFF725FA401B0228F5D903201EE1BB
:100DBC004B4A136823F0F803616943EAC1031360DB
:100DCC00DDE70022474B1A60FFF712FA0546444B49
:100DDC001B6813F0020FD2D0FFF70AFA401B02284F
:100DEC00F5D9032003E10120FFF704FF236813F07A
:100DFC00040F00F099803A4BDB6913F0805F46D109
:100E0C00374BDA6942F08052DA61DB6903F08053C8
:100E1C000193019B0125354B1B6813F4807F38D05F
:100E2C00E368012B49D0002B4DD103F1804303F52E
:100E3C0004331A6A22F001021A621A6A22F00402BE
:100E4C001A62E368002B5DD0FFF7D2F90646244BFB
:100E5C001B6A13F0020F66D1FFF7CAF9801B41F22F
:100E6C0088339842F3D90320C1E000221E4B1A604C
:100E7C00FFF7BEF905461A4B5B6A13F0020FB5D0AB
:100E8C00FFF7B6F9401B0228F5D90320AFE0002587
:100E9C00C1E7164A136843F480731360FFF7A8F98F
:100EAC000646124B1B6813F4807FB9D1FFF7A0F9EB
:100EBC00801B6428F5D9032099E0094A136A43F092
:100ECC0001031362BDE7052B12D0054B1A6A22F001
:100EDC0001021A621A6A22F004021A62B1E700BF18
:100EEC000010024000004242800442420070004068
:100EFC00414B1A6A42F004021A621A6A42F0010269
:100F0C001A629EE7FFF774F906463B4B1B6A13F017
:100F1C00020F08D0FFF76CF9801B41F2883398421E
:100F2C00F3D9032063E0E5B9E369002B5ED0324AC4
:100F3C00526802F00C02082A5BD0022B17D0002258
:100F4C002E4B1A60FFF754F904462B4B1B6813F019
:100F5C00007F47D0FFF74CF9001B0228F5D903207E
:100F6C0045E0254AD36923F08053D361DCE70022A6
:100F7C00224B1A60FFF73CF905461F4B1B6813F018
:100F8C00007F06D0FFF734F9401B0228F5D9032067
:100F9C002DE0236AB3F5803F1AD017494B6823F430
:100FAC007413226A606A024313434B600122134B91
:100FBC001A60FFF71DF904460F4B1B6813F0007FF6
:100FCC000ED1FFF715F9001B0228F5D903200EE00E
:100FDC00094A536823F40033A1680B435360DCE7E0
:100FEC00002004E0002002E0012000E0002002B01C
:100FFC0070BD0120FBE700BF0010024060004242C0
:10100C0010B586B0154C94E80F000DF1180E0EE9D2
:10101C000F00238AADF80430114B5B6803F00C020F
:10102C00082A18D1C3F38342724412F8102C13F41B
:10103C00803F03D10B4800FB02F00DE0084B5B68CE
:10104C00C3F34043734413F8143C074800FB02F00D
:10105C00B0FBF3F000E0044806B010BDF02D000822
:10106C000010024000093D0000127A00594B1B6829
:10107C0003F007038B420CD2564A136823F0070384
:10108C000B431360136803F00703994201D001204E
:10109C00704770B5036813F0020F06D04E4A5368C0
:1010AC0023F0F0038468234353600D460446036821
:1010BC0013F0010F52D04368012B23D0022B28D000
:1010CC00454A126812F0020F00F0828042494A68C9
:1010DC0022F0030213434B60FFF78AF8064663685D
:1010EC00012B1DD0022B2AD03B4B5B6813F00C0F4D
:1010FC0034D0FFF77DF8801B41F288339842F3D946
:10110C00032070BD344A126812F4003FDED1012076
:10111C0070BD314A126812F0007FD7D1012070BD2A
:10112C002D4B5B6803F00C03042B17D0FFF760F812
:10113C00801B41F288339842F2D9032070BD264BB4
:10114C005B6803F00C03082B08D0FFF751F8801BE9
:10115C0041F288339842F2D9032070BD1D4B1B68B5
:10116C0003F007039D420CD21A4A136823F00703BD
:10117C002B431360136803F007039D4201D0012039
:10118C0070BD236813F0040F06D0134A536823F480
:10119C00E063E1680B435360236813F0080F07D03A
:1011AC000D4A536823F46053216943EAC103536029
:1011BC00FFF726FF084B5B68C3F30313074AD35CA6
:1011CC00D840074B18600020FEF7D0FF002070BD00
:1011DC00012070BD0020024000100240042E0008C7
:1011EC0018010020014B1868704700BF180100203F
:1011FC0070B582B00446036813F0010F34D03E4B37
:10120C00DB6913F0805F48D13B4BDA6942F08052C6
:10121C00DA61DB6903F080530193019B0125374BA5
:10122C001B6813F4807F3AD0334B1B6A13F4407362
:10123C0011D0626802F4407293420CD02E4A136AA9
:10124C0023F440702E4901260E6000260E601062B9
:10125C0013F0010F37D1284A136A23F440736168E5
:10126C000B431362002D3FD1236813F0020F06D0FD
:10127C00214A536823F44043A1680B43536023680D
:10128C0013F0100F35D01C4A536823F48003E16827
:10129C000B435360002002B070BD0025BFE7174A16
:1012AC00136843F480731360FEF7A2FF0646134BDA
:1012BC001B6813F4807FB7D1FEF79AFF801B64285C
:1012CC00F5D90320E7E7FEF793FF06460A4B1B6AA6
:1012DC0013F0020FBFD1FEF78BFF801B41F2883356
:1012EC009842F3D90320D6E7D36923F08053D36116
:1012FC00BAE70020CFE700BF0010024000700040AA
:10130C004004424284B001A880E80E00002004B0E2
:10131C007047B0F840309BB243F43F43A0F84030E4
:10132C0000207047B0F8403023F474535B045B0C1E
:10133C00A0F84030002070470020704784B038B5CA
:10134C0005AC84E80E000123A0F840300024A0F87E
:10135C004040A0F84440A0F85040FFF7DAFF204688
:10136C00BDE8384004B0704710B4CB78032B0FD8CD
:10137C00DFE803F0026E55610A7830F822309BB238
:10138C0023F4EC4323F0700343F4007320F8223071
:10139C000A7830F8223023F0F0031B051B0D1343A1
:1013AC0043F4004343F0800320F822308B7A002B67
:1013BC0040F0B2804B78002B57D0B0F850309BB235
:1013CC000A7803EBC20300EB43038A8852085200ED
:1013DC00C3F800240A7830F8223013F0400F0BD0F9
:1013EC0030F8223023F0F0031B051B0D43F40043AF
:1013FC0043F0C00320F822300A7830F822309BB238
:10140C0023F4E04323F0400383F0200343F4004330
:10141C0043F0800320F82230002010BC70470A787B
:10142C0030F822309BB223F4EC4323F070039BB2D0
:10143C0020F82230ACE70A7830F822309BB223F443
:10144C00EC4323F0700343F4C06320F822309FE791
:10145C000A7830F822309BB223F4EC4323F070036B
:10146C0043F4806320F8223092E7B0F850309BB2FE
:10147C000A7803EBC203043300EB43038A88520857
:10148C005200C3F80024B0F850309BB20A7803EB3A
:10149C00C203063300EB43030C693E2C30D9C4F372
:1014AC004F1214F01F0F01D1013A92B26FEAC262CF
:1014BC006FEA524292B2C3F800240A7830F8223014
:1014CC0013F4804F0BD030F8223023F0F0031B05BF
:1014DC001B0D43F4404343F0800320F822300A787C
:1014EC0030F822309BB223F4804323F0700383F452
:1014FC00405343F4004343F0800320F822308BE741
:10150C00C4F34F0214F0010F01D0013292B29202D7
:10151C0092B2C3F80024D0E70A7830F8223023F4D2
:10152C00F8731B051B0D43F4014343F0800320F8B3
:10153C002230B0F850309BB20A7803EBC20300EBB8
:10154C004303CA8852085200C3F80024B0F8503044
:10155C009BB20A7803EBC203043300EB43030A8902
:10156C0052085200C3F800244B78002B4BD10A7858
:10157C0030F8223013F4804F0BD030F8223023F0A7
:10158C00F0031B051B0D43F4404343F0800320F88C
:10159C0022300A7830F8223013F0400F0BD030F89C
:1015AC00223023F0F0031B051B0D43F4004343F0E2
:1015BC00C00320F822300A7830F8223023F0F003F0
:1015CC001B051B0D43F4004343F0C00320F82230ED
:1015DC000A7830F822309BB223F4804323F0700356
:1015EC0083F4405348F28004234320F822300A78D5
:1015FC0030F822309BB223F4E04323F04003234322
:10160C0020F8223008E70A7830F8223013F4804FA3
:10161C000BD030F8223023F0F0031B051B0D43F4E4
:10162C00404343F0800320F822300A7830F822300F
:10163C0013F0400F0BD030F8223023F0F0031B05D1
:10164C001B0D43F4004343F0C00320F822300A780A
:10165C0030F8223023F0F0031B051B0D43F44043FC
:10166C0043F0800320F822300B7830F8232092B21C
:10167C0022F4E04222F0400248F28004224320F897
:10168C0023200A7830F822309BB223F4804323F0D5
:10169C007003234320F82230BEE68B7A002B44D112
:1016AC004B780BB30A7830F8223013F0400F0BD084
:1016BC0030F8223023F0F0031B051B0D43F40043DC
:1016CC0043F0C00320F822300A7830F822309BB265
:1016DC0023F4E04323F0400343F4004343F080033E
:1016EC0020F82230002070470A7830F8223013F4AA
:1016FC00804F0BD030F8223023F0F0031B051B0D6C
:10170C0043F4404343F0800320F822300A7830F849
:10171C0022309BB223F4804323F0700343F4004344
:10172C0043F0800320F82230DCE710B44B78002B18
:10173C004BD10A7830F8223013F4804F0BD030F8AC
:10174C00223023F0F0031B051B0D43F4404343F000
:10175C00800320F822300A7830F8223013F0400F42
:10176C000BD030F8223023F0F0031B051B0D43F493
:10177C00004343F0C00320F822300A7830F82230BE
:10178C0023F0F0031B051B0D43F4004343F0C0038F
:10179C0020F822300B7830F8232092B222F48042C9
:1017AC0022F0700248F28004224320F823200A78A9
:1017BC0030F822309BB223F4E04323F04003234360
:1017CC0020F82230002010BC70470A7830F8223004
:1017DC0013F4804F0BD030F8223023F0F0031B05AC
:1017EC001B0D43F4404343F0800320F822300A7869
:1017FC0030F8223013F0400F0BD030F8223023F0A9
:10180C00F0031B051B0D43F4004343F0C00320F809
:10181C0022300A7830F8223023F0F0031B051B0D20
:10182C0043F4404343F0800320F822300B7830F827
:10183C00232092B222F4E04222F0400248F28004CB
:10184C00224320F823200A7830F822309BB223F46C
:10185C00804323F07003234320F82230B2E70A7848
:10186C008AB14B7813BB30F822309BB223F48043FF
:10187C0023F0700383F4805343F4004343F080035C
:10188C0020F8223010E030F822309BB223F4804351
:10189C0023F0400383F4805383F0100343F400439C
:1018AC0043F0800320F822300020704730F82230BB
:1018BC009BB223F4E04323F0400383F0100343F482
:1018CC00004343F0800320F82230EDE74B781BB344
:1018DC000A7830F8223013F0400F0BD030F8223059
:1018EC0023F0F0031B051B0D43F4004343F0C0032E
:1018FC0020F822300A7830F822309BB223F4E043EF
:10190C0023F0400383F0300343F4004343F080039F
:10191C0020F82230002070470A7830F8223013F477
:10192C00804F0BD030F8223023F0F0031B051B0D39
:10193C0043F4404343F0800320F822300A7830F817
:10194C0022309BB223F4804323F0700383F4405382
:10195C0043F4004343F0800320F82230DAE711B956
:10196C008023A0F84C3000207047002070470020E6
:10197C007047B0F8440080B27047002070470133C4
:10198C005B1000EB420202F5806263B110B40C787C
:10199C00487844EA002422F8044B0231013B002B26
:1019AC00F5D110BC70477047F8B58A694C78012C9A
:1019BC0035D00B699A4240F2F080D21A8A618A7A49
:1019CC00002A40F0FA80B0F8502092B20C7802EB6A
:1019DC00C402063200EB42023E2B40F2E280C3F31B
:1019EC004F1413F01F0F01D1013CA4B26FEAC46471
:1019FC006FEA5444A4B2C2F800440A7830F822309A
:101A0C009BB223F4804323F0700383F4405343F4DC
:101A1C00004343F0800320F822300020F8BD0F690A
:101A2C00BA4226D9D21B8A610E4605468B7A23B35D
:101A3C000B7830F8232012F0400F6CD0002C39D1E9
:101A4C00B0F8502092B202EBC303063300EB430311
:101A5C003E2F23D9C7F34F1217F01F0F01D1013AB4
:101A6C0092B26FEAC2626FEA524292B2C3F8002499
:101A7C002AE000238B611746D6E7BBB28A884969F6
:101A8C00FFF77DFFB5F850309BB2327803EBC20301
:101A9C00023305EB4303C3F800742BE0C7F34F028A
:101AAC0017F0010F01D0013292B2920292B2C3F838
:101ABC00002409E0B0F8502092B202EBC3030233C9
:101ACC0000EB4303C3F800743289BBB2716928463A
:101ADC00FFF755FF7378002B4FD1327835F8223051
:101AEC0023F0F0031B051B0D43F4004343F0C0032C
:101AFC0025F82230327835F822309BB223F4E043BB
:101B0C0023F0400383F0300343F4004343F080039D
:101B1C0025F8223081E724BBB0F8502092B202EBBA
:101B2C00C303023300EB43033E2F0ED9C7F34F120E
:101B3C0017F01F0F01D1013A92B26FEAC2626FEA3D
:101B4C00524292B2C3F8002415E0C7F34F0217F0CB
:101B5C00010F01D0013292B2920292B2C3F800246A
:101B6C0009E0B0F8502092B202EBC303023300EB51
:101B7C004303C3F80074F288A7E7012BBAD132787B
:101B8C0035F8223023F0F0031B051B0D43F44043C2
:101B9C0043F0800325F82230ACE700238B61134619
:101BAC000DE7C3F34F0413F0010F01D00134A4B2BD
:101BBC00A402A4B2C2F800441FE7C4B9B0F8502084
:101BCC0092B20C7802EBC402023200EB42023E2BC2
:101BDC0029D9C3F34F1413F01F0F01D1013CA4B248
:101BEC006FEAC4646FEA5444A4B2C2F800444A7861
:101BFC008ABBB0F8502092B20C7802EBC4020632C9
:101C0C0000EB42023E2B1AD9C3F34F1413F01F0FF3
:101C1C0001D1013CA4B26FEAC4646FEA5444A4B28B
:101C2C00C2F80044E9E6C3F34F0413F0010F01D0EE
:101C3C000134A4B2A402A4B2C2F80044D7E7C3F39F
:101C4C004F0413F0010F01D00134A4B2A402A4B2CA
:101C5C00C2F80044D1E6012A7FF4CFAEB0F8502090
:101C6C0092B20C7802EBC402023200EB4202C2F8D0
:101C7C000034C2E601335B1000EB420202F58062D5
:101C8C0004E0106821F8020B013B0432002BF8D160
:101C9C007047D0F818321BB10020C3F814027047FB
:101CAC000220704710B5D0F81842D0F81C325BB146
:101CBC0094F80002FF2807D09B6894F80122214673
:101CCC009847FF2384F80032002010BD4323038083
:101CDC0000487047080000204323038000487047E9
:101CEC004C000020432303800048704790000020E4
:101CFC000A23038000487047D400002038B50446FE
:101D0C00D0F8185200F0AAFFC5F80C02D4F818321B
:101D1C004BB1D4F81C32DB6805F50371D5F804021D
:101D2C009847002038BD022038BD000070B505462C
:101D3C000C46D0F818620B7813F0600224D0202ADD
:101D4C0025D1CA88CAB113F0800F0AD14B7886F816
:101D5C000032CB8886F80132CA88314600F090FCFC
:101D6C0015E0D0F81C329B68314660789847E288C1
:101D7C003146284600F06FFC09E0D0F81C329B6815
:101D8C0000224878984702E04B780A2B01D00020BB
:101D9C0070BD0122014900F05EFCF8E77C010020D7
:101DAC0010B50446812100F0F2FE0121204600F01E
:101DBC00EEFE8221204600F0EAFED4F8183253B130
:101DCC00D4F81C325B689847D4F8180200F050FF26
:101DDC000023C4F81832002010BD38B50446037C2B
:101DEC0073BB4FF400730222812100F0BFFE4FF44D
:101DFC00007302220121204600F0B8FE08230322C2
:101E0C008221204600F0B2FE4FF4077000F02CFF48
:101E1C000546C4F8180248B3D4F81C321B6898471E
:101E2C000023C5F81432C5F81832237CA3B1402323
:101E3C00D5F804220121204600F002FF002038BD15
:101E4C0040230222812100F091FE40230222012135
:101E5C00204600F08BFED1E74FF40073D5F8042236
:101E6C000121204600F0ECFE002038BD012038BDD9
:101E7C0019B1C0F81C120020704702207047D0F82E
:101E8C001832C3F80812C3F8102200207047D0F89B
:101E9C001832C3F8041200207047D0F818228AB107
:101EAC0008B5D2F814320BB1012008BD0123C2F8D9
:101EBC001432B2F81032D2F80822812100F0B2FEAE
:101ECC00002008BD02207047D0F818229AB108B53E
:101EDC00037C3BB14023D2F80422012100F0B0FE78
:101EEC00002008BD4FF40073D2F80422012100F049
:101EFC00A7FE002008BD0220704798B108B5034624
:101F0C00D0F8140210B10020C3F8140209B1C3F8C0
:101F1C0010121846012380F8FC31027000F0CEFD3F
:101F2C00002008BD0220704719B1C0F8141200201F
:101F3C0070470220704708B500F00AFE002008BD6B
:101F4C0008B5D0F8143223B11B68984718B1022099
:101F5C0008BD022008BD002008BD08B5D0F8143219
:101F6C005B689847002008BD38B5044600F502753B
:101F7C00284600F00DF90123C4F8F431B4F80E3200
:101F8C00C4F8F83194F8081201F01F03012B0ED09D
:101F9C003BB1022B10D001F08001204600F005FE71
:101FAC0003E02946204600F06DFA002038BD294692
:101FBC00204600F08BFAF8E72946204600F0A2FAFA
:101FCC00F3E710B5044619BB1346D0F8F421032AE5
:101FDC0027D1D0F80C11D0F8102191420BD8D0F8A1
:101FEC0014321B691BB190F8FC21032A0ED0204639
:101FFC0000F05DFB15E0891AC0F80C118A4228BF6D
:10200C000A4692B2194600F04AFB0AE09847EEE7FE
:10201C000A46D0F814329B691BB190F8FC110329C5
:10202C0001D0002010BD11469847FAE710B50446C0
:10203C00002947D11346D0F8F421022A05D094F890
:10204C000032012B3AD0002010BDC169026A9142C6
:10205C0017D88169B1FBF2F302FB13132BB98A4237
:10206C0003D8D0F8F831994218D3D4F81432DB687D
:10207C001BB194F8FC21032A1DD0204600F022FB52
:10208C00DDE78A1AC26192B2194600F0F1FA002318
:10209C001A461946204600F0D3FDD0E7002211461F
:1020AC0000F0E6FA0021C4F8F8110B460A46204667
:1020BC0000F0C6FDC3E720469847DEE7002384F80E
:1020CC000032C0E70A46D0F814325B69002BBAD054
:1020DC0090F8FC110329B6D111469847B3E738B5EF
:1020EC00044640230022114600F040FD4025C4F870
:1020FC0010512B4600228021204600F037FD25622E
:10210C00012384F8FC31D4F818322BB1D4F81432F2
:10211C005B68217920469847002038BD0174002067
:10212C00704790F8FC3180F8FD31042380F8FC31C5
:10213C000020704790F8FD3180F8FC31002070478A
:10214C0008B590F8FC31032B01D0002008BDD0F865
:10215C001432DB69002BF8D09847F6E7002302E035
:10216C000133DBB201300278002AF9D118467047EE
:10217C004B88012B00D0704710B50446C0F80432D0
:10218C00D0F814329B689847204600F090FA10BDA6
:10219C000B7803704B7843708B78CA7803EB02236F
:1021AC0043800B794A7903EB022383808B79CA79BC
:1021BC0003EB0223C380704710B50446802100F066
:1021CC00F4FC0021204600F0F0FC10BD30B583B0CB
:1021DC0004460D464A88130A013B062B00F2818007
:1021EC00DFE803F00413277F7F637000D0F8103210
:1021FC001B680DF10601007C9847BDF8062012B152
:10220C00EB88002B71D103B030BD037C43B9D0F8FF
:10221C0014329B6A0DF10600984702234370ECE7D9
:10222C00D0F81432DB6A0DF1060098470223437094
:10223C00E3E7D2B2052A34D8DFE802F0030B131B14
:10224C00232BD0F810325B680DF10601007C984707
:10225C00D3E7D0F810329B680DF10601007C98474B
:10226C00CBE7D0F81032DB680DF10601007C984703
:10227C00C3E7D0F810321B690DF10601007C9847BA
:10228C00BBE7D0F810325B690DF10601007C984772
:10229C00B3E7D0F810329B690DF10601007C98472A
:1022AC00ABE72946FFF788FFADE7037C33B9D0F8DD
:1022BC0014325B6B0DF1060098479EE72946FFF739
:1022CC007BFFA0E7037C43B9D0F814321B6B0DF1F4
:1022DC0006009847072343708FE72946FFF76CFFEA
:1022EC0091E72946FFF768FF8DE79A4228BF1A4607
:1022FC00ADF806200146204600F0ADF983E738B56D
:10230C0004468B88E3B9CB88D3B98D7805F07F056B
:10231C0090F8FC31032B0CD080F8FE51294600F0CC
:10232C0073FC204600F0C3F935B1022384F8FC316C
:10233C0038BDFFF741FF38BD012384F8FC3138BDAF
:10234C002046FFF739FF38BD38B504460D4689786D
:10235C00254B1970012909D890F8FC31022B09D0B2
:10236C00032B1CD02946FFF727FF38BD2946FFF762
:10237C0023FF38BD81B14160032380F8FC31FFF7A6
:10238C00DFFD022803D0204600F091F938BD294624
:10239C002046FFF711FF38BD00F089F938BD89B12F
:1023AC00436899421DD0D9B2FFF7D7FD0E4B19786F
:1023BC0061602046FFF7C4FD02280DD0204600F0D6
:1023CC0076F938BD022380F8FC314160FFF7C5FD7A
:1023DC00204600F06CF938BD29462046FFF7ECFE8C
:1023EC0038BD00F064F938BD7D01002008B5CB88FC
:1023FC00012B08D190F8FC31022B07D0032B0DD008
:10240C00FFF7DAFE08BDFFF7D7FE08BD0146002333
:10241C0041F8083F012200F01EF908BD0122011D00
:10242C0000F019F908BD08B590F8FC31023B012BFE
:10243C000CD80123C360D0F804320BB10323C36062
:10244C00022200F10C0100F006F908BDFFF7B4FE02
:10245C0008BD10B5044690F8FC31023B012B0ED898
:10246C004B88012B00D010BD0023C0F80432D0F8EB
:10247C0014329B689847204600F019F910BDFFF7FD
:10248C009BFEF0E708B54B78092B1CD8DFE803F06E
:10249C0012181B151B09051B0F0CFFF797FE0020CC
:1024AC0008BDFFF72CFFFAE7FFF74EFFF7E7FFF742
:1024BC009DFFF4E7FFF7B7FFF1E7FFF759FEEEE7F3
:1024CC00FFF7C7FFEBE7FFF777FEE8E738B5044601
:1024DC000D4690F8FC31032B11D10B79012B03D94C
:1024EC00FFF76AFE002038BDD0F814329B6898477D
:1024FC00EB88002BF6D1204600F0D9F8F2E7FFF775
:10250C005BFEEFE738B505460C468A880B7803F07E
:10251C006003202B11D0D1B26378012B2BD0002B70
:10252C004DD0032B0DD190F8FC31022B0BD0032B8B
:10253C0010D02146FFF740FE03E0D0F814329B6820
:10254C009847002038BD0029FBD08029F9D000F035
:10255C002CFBF6E7638823B919B1802901D000F070
:10256C0024FBD5F814329B68214628469847284608
:10257C0000F09DF8E5E790F8FC31022B05D0032B19
:10258C000AD02146FFF718FEDBE70029D9D08029B5
:10259C00D7D000F00AFBD4E76388002BD1D111F01F
:1025AC007F0F03D1284600F082F8CAE700F00BFB3E
:1025BC00D5F814329B68214628469847F2E790F8E4
:1025CC00FC31022B05D0032B09D02146FFF7F4FD7B
:1025DC00B7E711F07F0FB4D000F0E7FAB1E712F0D3
:1025EC00800F11D101F07F04103400EB041404347B
:1025FC00284600F0F6FA70B101232360022221462E
:10260C00284600F028F89CE701F07F04013400EB29
:10261C0004140434ECE700232360EFE7D0B170B569
:10262C000D4616460446FFF799FD0130400080B276
:10263C003080287003236B70022307E05A1CD2B23F
:10264C000134E9540233DBB20021A954217800296A
:10265C00F4D170BD704710B513460222C0F8F421B6
:10266C008361C3610A46002100F0DCFA002010BD32
:10267C0008B513460A46002100F0D4FA002008BD24
:10268C0010B513460322C0F8F421C0F80831C0F885
:10269C000C310A46002100F0D3FA002010BD08B519
:1026AC0013460A46002100F0CBFA002008BD08B5FD
:1026BC000423C0F8F43100231A46194600F0B2FA8C
:1026CC00002008BD08B50523C0F8F43100231A46D4
:1026DC00194600F0B5FA002008BD000082B00A4B84
:1026EC009A6942F020029A619A6902F020020092E3
:1026FC00009A9A6942F004029A619B6903F0040300
:10270C000193019B02B0704700100240FEE70000ED
:10271C0000B595B001220A924FF480330B9300213F
:10272C000C910E920222119212934FF4E013139318
:10273C000AA8FEF775FA48BB0F23059302210691F0
:10274C00002307934FF480620892099305A8FEF7C3
:10275C008DFCF8B9102301930023049301A8FEF714
:10276C0047FDD8B9FEF73EFD0E4BA3FB00308009A8
:10277C00FDF794FD0420FDF7A7FD002211464FF054
:10278C00FF30FDF74DFD15B05DF804FB96210648B2
:10279C00FFF7BCFFA4210448FFF7B8FFAB210248A8
:1027AC00FFF7B4FFD34D62101C2E000808B5FDF7DF
:1027BC0001FDFFF7ADFFFFF791FF00F08DF8FEE78D
:1027CC0000B583B0244B9A6942F001029A619A6970
:1027DC0002F001020092009ADA6942F08052DA614A
:1027EC00DB6903F080530193019B0320FDF706FD89
:1027FC00002211466FF00B00FDF712FD002211466E
:10280C006FF00A00FDF70CFD002211466FF0090075
:10281C00FDF706FD002211466FF00400FDF700FDE8
:10282C00002211466FF00300FDF7FAFC002211465E
:10283C006FF00100FDF7F4FC002211464FF0FF3061
:10284C00FDF7EEFC054A536823F0E06343F0007398
:10285C00536003B05DF804FB00100240000001401F
:10286C007047FEE7FEE7FEE7FEE7704770477047EC
:10287C0008B5FDF7B1FCFDF738FD08BD08B50248F9
:10288C00FEF798F808BD00BFCC3400200F4B1A6837
:10289C0042F001021A6059680D4A0A405A601A68DF
:1028AC0022F0847222F480321A601A6822F4802298
:1028BC001A605A6822F4FE025A604FF41F029A60A2
:1028CC004FF00062034B9A60704700BF001002404B
:1028DC000000FFF800ED00E010B5094C002209499A
:1028EC002046FFF70AFB08492046FFF71DFB074966
:1028FC002046FFF7BDFA2046FFF71DFB10BD00BFB9
:10290C00CC2A002044010020E00000201C01002003
:10291C00002070470020704710B5064C0022064975
:10292C002046FFF7ACFA05492046FFF7B0FA002025
:10293C0010BD00BFCC2A0020D8300020F02C002085
:10294C00094BD3F81832D3F814320BB1012070476D
:10295C0010B50A460146044C2046FFF790FA204673
:10296C00FFF79BFA10BD00BFCC2A002070B51C4AA3
:10297C000123137213680D68D41842F2197165544F
:10298C0001331360092B02DD0022154B1A60154A26
:10299C00D2F83435144C1919066845681E514D602F
:1029AC0004890C810133C2F834350378202B11D003
:1029BC000B4B1A684FF47A7101FB02F10831194480
:1029CC000A4C01312046FFF762FA2046FFF77CFAE9
:1029DC00002070BD03210648FFF7B2FFE8E700BFF7
:1029EC008001002070230020C0340020CC2A00205D
:1029FC002C2E000802680E4B9A4200D0704700B58E
:102A0C0083B003F5DA33DA6942F40002DA61DB6988
:102A1C0003F400030193019B002211461420FDF7DF
:102A2C00FFFB1420FDF72EFC03B05DF804FB00BF88
:102A3C00005C004008B500F22C41D0F85C04FFF7B4
:102A4C0093FA08BD08B500EB4113D3F83C22D0F83B
:102A5C005C04FFF7B6FA08BD08B500EB4113DA6B5E
:102A6C00D0F85C04FFF7E2FA08BD08B5D0F85C04B6
:102A7C00FFF766FB08BD10B504460121D0F85C04D5
:102A8C00FFF74CFBD4F85C04FFF729FB10BD0000EA
:102A9C0010B50446D0F85C04FFF743FBA36923B1DF
:102AAC00024A136943F00603136110BD00ED00E008
:102ABC0008B5D0F85C04FFF73DFB08BD10B5044623
:102ACC002048C0F85C44C4F820021F4B0360082364
:102ADC004360022383600323C36000238361C361CB
:102AEC000362FDF706FC30BB182300221146D4F814
:102AFC002002FEF766F8582300228021D4F8200229
:102B0C00FEF75FF8C02300228121D4F82002FEF7E3
:102B1C0058F84FF4887300220121D4F82002FEF7F4
:102B2C0050F84FF4807300228221D4F82002FEF773
:102B3C0048F8002010BD4FF497710448FFF7E6FDEC
:102B4C00D2E700BFCC340020005C0040302E0008DF
:102B5C0008B5D0F82002FDF737FC18B1022803D0D5
:102B6C00022008BD002008BD012008BD10B51C4680
:102B7C0013462246D0F82002FDF751FC18B102286A
:102B8C0003D0022010BD002010BD012010BD08B5DF
:102B9C00D0F82002FDF76CFC18B1022803D00220FB
:102BAC0008BD002008BD012008BD08B5D0F82002E2
:102BBC00FDF7B2FF18B1022803D0022008BD002097
:102BCC0008BD012008BD08B5D0F82002FDF7D2FFE2
:102BDC0018B1022803D0022008BD002008BD012036
:102BEC0008BDD0F8202211F0800F06D101F07F0132
:102BFC0002EB411191F82A02704701F07F0302EBBE
:102C0C00431191F82A00704708B5D0F82002FDF75F
:102C1C00F2FB18B1022803D0022008BD002008BD29
:102C2C00012008BD08B5D0F82002FDF76EFC18B1E4
:102C3C00022803D0022008BD002008BD012008BDD9
:102C4C0008B5D0F82002FDF73AFC18B1022803D0E1
:102C5C00022008BD002008BD012008BD08B5D0F831
:102C6C002002FDF74BFC08BD00487047A828002047
:102C7C007047704712230B80004870472C010020CE
:102C8C0004230B80004870474001002008B50A4619
:102C9C0028B105490548FFF7C1FC034808BD0249A6
:102CAC000248FFF7BBFCF8E72C390020442E000843
:102CBC0010B5044C0A4621460348FFF7AFFC2046EA
:102CCC0010BD00BF2C3900205C2E000808B50A4648
:102CDC0028B105490548FFF7A1FC034808BD024986
:102CEC000248FFF79BFCF8E72C390020702E0008F7
:102CFC0008B50A4628B105490548FFF78FFC03487B
:102D0C0008BD02490248FFF789FCF8E72C3900207E
:102D1C00802E000808B50A4628B105490548FFF77A
:102D2C007DFC034808BD02490248FFF777FCF8E731
:102D3C002C3900208C2E0008002103E00B4B5B5833
:102D4C00435004310A480B4B42189A42F6D30A4AB4
:102D5C0002E0002342F8043B084B9A42F9D3FFF7F8
:102D6C0095FD00F00FF8FFF721FD7047A42E000829
:102D7C000000002060010020600100202C3B00209E
:102D8C00FEE7000070B500250C4E0D4CA41BA410E2
:102D9C00A54209D100F01AF800250A4E0A4CA41BD2
:102DAC00A410A54205D170BD56F8253098470135C1
:102DBC00EEE756F8253098470135F2E79C2E0008CF
:102DCC009C2E00089C2E0008A02E0008F8B500BF11
:102DDC00F8BC08BC9E467047F8B500BFF8BC08BCF0
:042DEC009E46704748
:102DF00002030405060708090A0B0C0D0E0F10103C
:102E000001020000000000000000000001020304B5
:102E10000607080900000000010203042E2E2F53AC
:102E200072632F6D61696E2E630000006162630042
:102E30002E2E2F5372632F757362645F636F6E66FD
:102E40002E63000053544D333220566972747561FD
:102E50006C20436F6D506F727400000053544D69C5
:102E600063726F656C656374726F6E696373000083
:102E70003030303030303030303031410000000000
:102E800043444320436F6E66696700004344432018
:0C2E9000496E74657266616365000000A5
:042E9C0031010008F8
:042EA0000D01000818
:102EA400010000001000000009024300020100C0FC
:102EB400320904000001020201000524001001058A
:102EC40024010001042402020524060001070582EE
:102ED4000308001009040100020A000000070501AC
:102EE400024000000705810240000000090243007F
:102EF400020100C03209040000010202010005249D
:102F04000010010524010001042402020524060026
:102F1400010705820308001009040100020A0000E9
:102F240000070501020002000705810200020000FB
:102F340009074300020104C032090400000102022F
:102F440001000524001001052401000104240202EB
:102F54000524060001070582030800FF0904010097
:102F6400020A000000070501024000000705810273
:102F7400400000000A0600020000004001000000BA
:102F8400E71D0008AD1D0008391D00080000000001
:102F9400B11C00089F1C0008091D00080000000067
:102FA4000000000000000000E51C0008D91C000817
:102FB400F11C0008FD1C000800A24A042529000891
:102FC4001D2900082129000879290008120100029E
:102FD4000202004083044057000201020301000082
:102FE40004030904812C00088D2C0008BD2C000862
:102FF400992C0008D92C0008FD2C0008212D00086C
:0400000508002D457D
:00000001FF
